:020000040800F2
:10000000E805002045010008A5330008092B000879
:10001000A1330008A1080008893D00080000000085
:10002000000000000000000000000000893A000805
:10003000BD08000800000000853A00088D3A00085D
:100040005F0100085F0100085F0100085F01000810
:100050005F0100085F0100085F0100085F01000800
:100060005F0100085F0100085F0100085F010008F0
:100070005F0100085F010008A5080008B10800083A
:100080005F0100085F0100085F0100085F010008D0
:100090005F0100085F0100085F0100085F010008C0
:1000A0005F0100085F0100085F0100085F010008B0
:1000B0005F0100085F0100085F0100085F010008A0
:1000C0005F0100085F0100085F0100085F01000890
:1000D0005F0100085F0100085F0100085F01000880
:1000E0005F0100085F0100085F0100085F01000870
:1000F0005F0100085F0100085F0100085F01000860
:100100005F0100085F0100085F0100085F0100084F
:100110005F0100085F0100085F0100085F0100083F
:100120005F0100085F0100085F0100085F0100082F
:10013000DFF80CD000F0A2FB004800470D4000089B
:10014000E80500200648804706480047FEE7FEE72E
:10015000FEE7FEE7FEE7FEE7FEE7FEE7FEE7FEE777
:10016000913A000831010008F0B480EA0102D40F8E
:100170004200B2EB410F02D20246084611464A0045
:1001800042D0C30DDDB2C1F3C752AD1A202D35DA0E
:10019000C1F3160141F4000204B15242C5F1200638
:1001A00002FA06F12A411044B3EBD05F23D0C4B168
:1001B000012DA0EBC35009DCF0BC4FF0004202EA75
:1001C000C352DBB200F5000000F0CCBA400000F1F1
:1001D000807000EBC350A0F1807040EAD1704900FC
:1001E00009E0490841EAC071A0EBC35000F50000E6
:1001F000400800EBC350F0BC00F0ABBA61420122F2
:1002000002EB4101001BF6E7F0BC704781F00041B2
:10021000AAE780F00040A7E730B480EA010202F0CC
:10022000004530F0004221F0004013D090B1C30DE2
:10023000D40DC2F31601C0F31600E41A41F4000114
:1002400040F400027D34914201D3641C00E0490077
:10025000002C02DA30BC002070474FF4000000236D
:10026000914201D3891A034340084FEA4101F7D173
:1002700051B1914202D14FF0004105E002D24FF05E
:10028000010101E06FF0010103EBC450284430BCD0
:1002900000F05FBA2DE9FE4F804681EA0300C00FEF
:1002A0000C46009021F0004123F00045B8EB02001D
:1002B000A94105D24046214690461C460B460246BF
:1002C00023F00040104347D0270DC7F30A00C3F3C3
:1002D0000A510290401A019040286BDAC3F31300D0
:1002E00040F4801B0098924620B10023D2EB030A11
:1002F00063EB0B0B01985946C0F14002504600F0E9
:10030000F7F906460D4650465946019A00F00FFA95
:1003100010EB08006141002487EA115284EAE77378
:100320001A4340D0009A62B3019A012A4FEA075259
:1003300015DC001B61EB02014FF0004202EA07529C
:10034000CDE90042001C41F5801132462B4600F0F9
:1003500046FA03B0BDE8F08F40462146F9E7001B9E
:1003600061EB0201001C41F5801300185B4120186D
:10037000A2F5001747EB030140EAD570B6196D41AD
:1003800011E06D084FEA360645EAC0754FEA07529C
:10039000001B61EB0201001C41F5801149084FEA86
:1003A00030000019514132462B4603B0BDE8F04FF2
:1003B00000F006BA0098012240000023D0EB0202B0
:1003C00063EBE073009821464FEAE074B8EB00005D
:1003D00061EB0401E9E783F000435BE781F0004152
:1003E00058E72DE9FE4F81EA030404F0004421F0B0
:1003F000004100944FF0000B23F0004350EA010449
:100400005ED052EA03045BD0C3F30A54C1F30A5529
:100410002C44A4F2F3340194A0FB0254C1F3130161
:1004200041F48011C3F3130343F4801301FB02442E
:1004300000FB034E840A970A44EA815447EA835733
:10044000A4FB076802958D0A05FB07854FEA932CEC
:1004500004FB0C542705029D4FEA065847EA16375D
:10046000B5EB08056EEB070C870E920E47EA811775
:1004700042EA8312A7FB0201B6EB0B0164EB000416
:100480002B0D43EA0C335E1844EB1C50DA46514600
:10049000E7FB0201C5F313044FEA0B3343EA14539D
:1004A0004FEA0432019C43EA0603A4F10C040294CF
:1004B000009CCDE900B400F092F903B0BDE8F08FE4
:1004C00000200146F9E72DE9F04D81EA030404F02C
:1004D000004B21F0004514464FF0000A23F0004184
:1004E00050EA050220D054EA01021DD0C5F30A5794
:1004F0000246C5F31303C1F31300C1F30A5640F4D7
:10050000801543F48013A7EB0608101BD64608F2AB
:10051000FD3873EB050002D308F1010801E09218E1
:100520005B41B8F1000F03DA00200146BDE8F08D11
:1005300000204FF48011064684460EE0171B73EB33
:10054000050705D3121B63EB050306434CEA010CB8
:1005500049084FEA300092185B4150EA0107EDD19B
:1005600052EA030012D082EA040083EA050108433C
:1005700005D0101BAB4106D20122002306E0002269
:100580004FF0004302E06FF0010253101AEB060037
:100590004CEB085110EB0A0041EB0B01BDE8F04DAC
:1005A00000F00EB9002801DBC0F10040002901DB9A
:1005B000C1F10041814201D80120704700207047FD
:1005C000002801DBC0F10040002901DBC1F100413E
:1005D000814201D3012070470020704796230022FA
:1005E000114600F0BFB80EB5C10F80EAE0700844B4
:1005F000CA07002140F233438DE80E000A460B463D
:1006000000F0EDF803B000BD0EB540F233410291A9
:100610000021CDE900110A460B4600F0E0F803B0D6
:1006200000BD00F0004220F00040C10DC0F31600F4
:1006300040F400007F2901DA00207047962903DC8E
:10064000C1F19601C84001E096398840002AF4D0F3
:100650004042704770B5C1F30A5201F000450024D2
:10066000C1F3130140F2FF3341F480119A4201DAE1
:10067000002070BD40F233439A42A2F2334203DCC1
:10068000524200F044F800E090402C43F1D0404248
:1006900070BD00F0004230F000400AD0C10D01F5FD
:1006A0006071C0F3160042EA0151C20840071143CD
:1006B000704700200146704701F0004330B421F03C
:1006C000004150EA010206D00A0DA2F56072C1F3A2
:1006D0001301002A02DC30BC00207047440F44EABA
:1006E000C104C100E01830BC00EBC25000F031B8CA
:1006F000202A04DB203A00FA02F1002070479140E2
:10070000C2F1200320FA03F3194390407047202AD6
:1007100004DB203A21FA02F00021704721FA02F3AB
:10072000D040C2F120029140084319467047202A68
:1007300006DBCB17203A41FA02F043EAE07306E009
:1007400041FA02F3D040C2F1200291400843194619
:1007500070470029A8BF7047401C490008BF20F01F
:100760000100704710B4B0FA80FC00FA0CF050EAB7
:10077000010404BF10BC704749B1CCF1200421FA38
:1007800004F411FA0CF118BF012121430843A3EB33
:100790000C01CB1D4FEA00614FEA102042BF002040
:1007A00010BC704700EBC35010440029A4BF10BC1C
:1007B0007047401C490008BF20F0010010BC704782
:1007C00010B5141E73F1000408DA401C41F1000159
:1007D00092185B411A4301D120F0010010BD2DE9B0
:1007E000F04D92469B4611B1B1FA81F202E0B0FAA7
:1007F00080F220329046FFF77BFF04460F4640EA26
:100800000A0041EA0B0153465A46084313D01146E9
:1008100053EA010019D0C8F140025046FFF777FFB4
:1008200005460E46504659464246FFF761FF0843CB
:1008300005D0012004E020463946BDE8F08D0020B7
:10084000054346EAE0762C4337430A986305E40AF9
:10085000A0EB08000022FD0A44EA47540A3002D502
:1008600000200146E9E7010510196941DDE9084565
:1008700000196941BDE8F04DA2E70000064C074DA4
:1008800006E0E06840F0010394E807009847103460
:10089000AC42F6D3FFF750FC94530008B453000861
:1008A000FEE7000040F27400C2F2000000F00EB853
:1008B00040F23000C2F2000000F008B870470000BB
:1008C000EFF3108072B600BFFEE7000010B5D0E96C
:1008D0000FE3D0F800C0DEF80020DCF80010DA40AA
:1008E00054072DD511F004042AD0DCF80010890635
:1008F00005D4DCF8001021F00401CCF8001004222B
:10090000C4F2020202F17C018C454DD940F208414B
:10091000C4F202018C4500F0B18040F21C41C4F2E7
:1009200002018C4500F0AE8040F23041C4F2020179
:100930008C4540F0AB804FF48061C2F80014F9E0C0
:10094000940747D511F0020444D0DCF80010890662
:1009500008D4DCF8001021F00A01CCF800100121C5
:1009600080F821100422C4F2020202F17C018C45BD
:100970004ED940F20841C4F202018C4500F0B68025
:1009800040F21C41C4F202018C4500F0B38040F2F9
:100990003041C4F202018C4540F0B0804FF4007148
:1009A000C2F80014D8E000BF4321C4F202018C4514
:1009B00044DD6B21C4F202018C4551DC4421C4F2B8
:1009C00002018C4500F0A6805821C4F202018C453A
:1009D00068E000BF120740F1C58011F0080108BFB0
:1009E00010BDDCF8001021F00E01CCF80010012140
:1009F00001FA03F2CEF80420816380F82110016B24
:100A00000022002980F8202040F09680AAE000BF54
:100A10004321C4F202018C4548DD6B21C4F202017E
:100A20008C4555DC4421C4F202018C4500F08880DD
:100A30005821C4F202018C4576E000BF0821C4F2BF
:100A400002018C456AD01C21C4F202018C456FD092
:100A50003021C4F202018C4524D14FF4806168E05A
:100A60006C21C4F202018C455AD08021C4F20201EB
:100A70008C4517D14FF080615BE000BF0421C2F8C4
:100A8000001457E04021C2F8001453E002F58863D7
:100A90004FF480219C4508BF4FF48041C2F80014F8
:100AA00048E000BF4FF4802143E000BF0821C4F2BA
:100AB00002018C4548D01C21C4F202018C4549D06A
:100AC0003021C4F202018C452ED14FF4007142E076
:100AD0006C21C4F202018C4538D08021C4F202019D
:100AE0008C4521D14FF0007135E000BF0221C2F8E2
:100AF000001431E02021C2F800142DE002F58863D3
:100B00004FF400319C4508BF4FF40051C2F8001467
:100B100022E000BF4FF480410BE000BF042108E059
:100B20004FF4800105E000BF4FF4003113E000BF37
:100B300040211160C16AA9B1BDE81040084700BF5B
:100B40004FF4005107E000BF022104E04FF4001110
:100B500001E000BF20211160816A0022002980F895
:100B60002020E9D110BD0000014600284FF001000F
:100B700008BF70472DE9F04740F2000CC4F2020CA8
:100B80000A684FF6F8330CF5816ECBF6FD737245AB
:100B900038BF03F5806303EB020E4CF6CD43CCF671
:100BA000CC43AEFB033E6FF003060CF5806506EA0E
:100BB0009E06D1E901A9D1F80C803CBF0025C4F202
:100BC0000205C1E90F56022681F82160166843F636
:100BD000F075AE4346EA0A06D1E9045746EA09062B
:100BE00046EA0806D1E906432E43374327433B43F1
:100BF000136000228A6381F8210081F82020002000
:100C0000BDE8F04770470000F0B590F820C0BCF197
:100C1000010F32D04FF0010E80F820E090F821C093
:100C2000BCF1010F26D14FF0020C80F821C04FF02B
:100C3000000CC0F838C0D0E900C4C56AC66BDCF847
:100C40000070102C27F00107CCF80070006C0EFA31
:100C500000F070600846CCF8043004BF10460A4625
:100C6000CCF80800CCF80C20DCF8000045B140F0CE
:100C70000E000DE0002180F820100220F0BD00BF22
:100C800020F00400CCF80000DCF8000040F00A007E
:100C9000CCF80000DCF8000040F00100CCF80000C7
:100CA0000020F0BDB0B5044600F048F9054640F21A
:100CB0000400C2F200000078611C18BF044400BFA9
:100CC00000F03CF9401BA042FAD3B0BDB0B540F2F1
:100CD0000C146FF00501C2F20004081A216885B2F5
:100CE00020464D6200F082FF4FF6F970854213D81E
:100CF00020684FF6FA7100BF426A92B28A420BD264
:100D0000426A92B28A4207D2426A92B28A4203D2BD
:100D1000426A92B28A42EFD340F20C10C2F2000053
:100D2000BDE8B04000F0A2BF2DE9F04F82B0D1F88D
:100D300000C0BCF1000F00F0F180A0F1804241F64C
:100D40000045A2F58432C4F2010540F2004E4FEA9C
:100D5000B2240627A842C4F2010E08BF0527052CBD
:100D60004FF000044FF001084FF00F034FF0000A5E
:100D70004FF0000B38BF4FEAB22700970AE000BFE0
:100D8000D1F800C00AF1010A3CFA0AF204F10404A5
:100D900000F0C48008FA0AF91CEA090FF0D04E6886
:100DA0004FF6FF72C1F21002964211DC122E55D896
:100DB000DFE806F0340A444854545454545454540C
:100DC00054545454544C5000D1F80CB046E000BF79
:100DD0004FF6FF72C1F2210296420FDC0022C1F2EF
:100DE000110296421AD00022C1F21202964215D088
:100DF0000022C1F22102964210D02FE00022C1F25F
:100E0000220296420AD00022C1F23102964205D057
:100E10000022C1F23202964220D100BF8A684AB154
:100E2000012A14BFC0F81490C0F810904FF0080BBE
:100E300014E000BF4FF0040B10E000BFCA6802F1DD
:100E4000080B0BE04FF0000B08E000BFCA6802F18E
:100E5000040B03E0CA6802F10C0B00BF22460646F1
:100E6000BAF1080F24BF203A0436376803FA02F5B6
:100E7000AF430BFA02F23A433260CA79D2067FF5E9
:100E80007FAF41F21807C4F202073A684FF60843F1
:100E900042F001023A603A68CFF6FF7302F00102B5
:100EA0000192019A2AF0030272440F25D75804F0E8
:100EB0000C06B540AF43009D05FA06F63743D75000
:100EC0004E6840F20C45F202DEF8082054BF22EAD8
:100ED000090242EA0902CEF80820C4F201052A6894
:100EE000B70254BF22EA090242EA09022A60DEF888
:100EF0000420B70354BF22EA090242EA0902CEF8ED
:100F000004200F23DEF80020F70354BF22EA090271
:100F100042EA0902CEF8002032E700BF02B0BDE885
:100F2000F08F00008068084018BF01207047000063
:100F3000002A08BF090401617047000040F2E41074
:100F4000C2F200000068704770B5B8B3044690F86C
:100F50003D0028B9002084F83C00204600F05CF9F0
:100F6000242084F83D002068016821F0010101601F
:100F7000016841F400410160016821F40041016011
:100F800000F014FB48F28041C0F21E0140F600134D
:100F9000D4F804E088424FF00001C0F23D0348F26B
:100FA000A16C4FF0000238BF01219842C0F2010C41
:100FB00038BF0122E64538BF0A460AB1012070BD9C
:100FC0004DF68361C4F21B31A0FB01122168950C20
:100FD0004B684FF4967623F03F0343EA9243754300
:100FE00044F6D3564B60C1F262060B6AA5FB065667
:100FF000B50923F03F03E64538BF950C6A1C1A4338
:101000000A62CA6948F2A0664CF6FF73C0F2010694
:10101000B64522EA03020BD801384FEA4E03B0FB73
:10102000F3F001306FF31F30042898BF04201EE056
:10103000A368013863B119230EFB03F3B0FBF3F08F
:1010400001306FF31F3078B100F5804008E000BF39
:101050000EEB4E03B0FBF3F001306FF31F3028B1FD
:1010600000F5004003E000BF012000E00120104334
:10107000C8610868D4E9072320F0C0001043184372
:101080000860886848F2FF3204F10C0690434CCEA9
:1010900018431043A5698860C86820F0FF003043FA
:1010A0002843C860086840F0010008600020202143
:1010B000206484F83D10206384F83E0070BD000079
:1010C0002DE9F04383B0994616460F460446FFF7D4
:1010D00035FF94F83D10202920D10546206800BF37
:1010E0008169890716D5FFF729FF411B20681A2956
:1010F000F6D381698907F3D500202021206384F885
:101100003D1084F83E00216C41F02001216484F8F8
:101110003C0003E094F83C10012903D1022003B005
:10112000BDE8F083012284F83C200368DDE90B1858
:101130000A9ADB0703D1036843F0010303600368E5
:1011400023F400630360212084F83D00402084F8EC
:101150003E000020206462626185608D39462085F2
:101160000020CFF6FF70E062204632464B46CDF8B5
:101170000080019501F0CAFC20B1012003B0BDE858
:10118000F08300BF208D98B9204641462A4601F0E1
:1011900021FD88B3206C0428EFD12068016841F458
:1011A00000710160012003B0BDE8F0830004EBD0C2
:1011B000204641462A4601F0C7FE0028EAD1616A6E
:1011C0002268084610F8013B1361238D6062581EA7
:1011D0002085678D013F678557697F07E6D507043E
:1011E000E4D048781061881C6062981E2085618D6B
:1011F00001396185DAE700BF2068016841F40071B8
:101200000160202084F83D00002084F83E0084F82E
:101210003C0003B0BDE8F08310B586B045F2004154
:101220000068C4F2000100228842049202D006B095
:1012300010BD00BF41F21804C4F20204206840F05F
:1012400008002060206800F0080001900198C0208C
:101250000290122003900320059001F5384002A966
:10126000FFF762FD606840F400106060606800F4A1
:1012700000100190019806B010BD000040F204007B
:1012800040F2E411C2F20000C2F2000100780A68E4
:10129000104408607047000080B542F20000C4F2BC
:1012A0000200016841F010010160032000F08EF897
:1012B0000F2000F005F800F027F8002080BD0000A6
:1012C00070B540F20406C2F2000640F228013278FE
:1012D000C2F200014FF47A730968B3FBF2F20446DC
:1012E000B1FBF2F1084600F063FB0F2C4FF0010553
:1012F00008D838B94FF0FF3021460022002500F011
:1013000039F87460284670BD82B041F21800C4F20A
:1013100002000168022241F001010160016801F050
:10132000010101910199416841F08051416040689B
:1013300000F08050009000980420C4F20100016881
:1013400062F31A61016002B070470000002848BFD4
:101350007047C1B200F01F00012202FA00F04EF205
:101360000012CEF2000242EAD10121F0030108602E
:101370007047000010B54EF60C5CCEF2000CDCF8A5
:101380000030C3F3022E8EF00704042C28BF04247F
:10139000BEF103034FF0FF3E0EFA04F438BF002302
:1013A000A14399400EFA03F39A43114300F00F0250
:1013B00000F160430901043A03F5644362440028E4
:1013C00048BF02F10C03197010BD00004EF60C511D
:1013D000CEF200010A684FF6FF031A4060F30A22BA
:1013E00042F0806040F0FD70086070472DE9F043E6
:1013F00081B0002800F0858042F20008C4F20208A3
:101400000446D8F800000D4600F0070088420CD2D0
:10141000D8F8000020F007002843C8F80000D8F8EA
:10142000000000F00700A8426BD1206841F20409D7
:101430008107C4F2020917D5410705D5D9F8001074
:1014400041F4E061C9F80010010705D5D9F8001092
:1014500041F46051C9F80010D9F80010A26821F0D9
:10146000F0011143C9F80010C00741D1D8F80000BD
:1014700000F00700A8420CD9D8F8000020F00700BF
:101480002843C8F80000D8F8000000F00700A84280
:1014900037D12068410707D5D9F80010E26821F458
:1014A000E0611143C9F80010000708D5D9F8000021
:1014B000216920F4605040EAC100C9F80000D9F861
:1014C000002002F00C00082841F20020C0F27A004F
:1014D00050D145F24C33C2F38341C0F60003595C4E
:1014E000D2033BD440F60010C0F23D00484341E037
:1014F000606802280AD001282AD159F8041C8903FF
:1015000008D4012001B0BDE8F08300BF59F8041CE5
:101510008901F6D5D9F8001021F003010843C9F874
:101520000000FFF70BFD064641F28837D9F80000AE
:10153000616800F00C00B0EB810F97D0FFF7FEFC64
:10154000801BB842F2D9032001B0BDE8F08300BF90
:1015500059F8041C8907D4D5DCE700BFD9F800206E
:1015600044F65053C2F34042C0F600039A5C48432D
:10157000B0FBF2F0D9F8001044F23052C1F303117D
:10158000C0F60002515C40F2280220FA01F140F25C
:101590000800C2F200000068C2F200021160FFF70A
:1015A0008FFE002001B0BDE8F083000040F228006B
:1015B00041F20401C2F20000C4F2020100680968AD
:1015C00044F24052C1F30221C0F60002515CC8400F
:1015D0007047000040F2280041F20401C2F200000E
:1015E000C4F202010068096844F24052C1F3C2210A
:1015F000C0F60002515CC840704700002DE9F04180
:1016000082B0002868D00446007841F20006C00786
:10161000C4F2020625D0706800F00C0004281BD02C
:10162000706800F00C00082802D17068C00313D461
:101630006068002800F06881B0F5A02F00F07C8180
:10164000B0F5803F00F07C81306820F4803030605D
:10165000306820F4802076E13068800301D560682E
:10166000D0B32078800718D5706810F00C0F07D021
:10167000706800F00C0008286ED17068C0036BD44D
:101680003068800702D52069012825D1306861695A
:1016900020F0F80040EAC1003060207800071FD435
:1016A0002078400732D4E56995B1706800F00C00ED
:1016B000082840F08F80012D0ED07068216A00F458
:1016C00080328A4208D1616A00F47010884203D1E6
:1016D000002002B0BDE8F081012002B0BDE8F08139
:1016E000A069002862D00020C4F242200121C0F885
:1016F0008014FFF723FC0546706A800700F18C8098
:10170000FFF71CFC401B0228F6D92AE1F06910F013
:10171000805808D1F06940F08050F061F06900F025
:1017200080500090009847F20007C4F20007386824
:10173000C00529D4386840F480703860FFF7FEFB9C
:10174000054600BF3868C0051ED4FFF7F7FB401BF5
:101750006428F7D905E100BF2069002840F20000A5
:10176000C4F2422000F0828001210160FFF7E6FB15
:10177000054600BF306880073FF588AFFFF7DEFB06
:10178000401B0228F6D9ECE0E068002800F08080D9
:10179000052800F09780012800F09880306A20F03A
:1017A00001003062306A20F0040092E00020C4F2B0
:1017B00042200021C0F88014FFF7C0FB054600BF9F
:1017C000706A80077FF56CAFFFF7B8FB401B0228FB
:1017D000F6D9C6E00027C4F2422700203866FFF79A
:1017E000ADFB022D05460BD13068800140F1BE8073
:1017F000FFF7A4FB401B02284FF00300F4D968E771
:10180000306880017FF564AFFFF798FB401B02282A
:101810004FF00300F4D95CE740F22800C2F2000068
:10182000006844F6D351C1F26201A0FB0101480AED
:10183000019000BF00BF0198411E002801913FF4B4
:101840002FAF00BF0198411E002801913FF428AF3F
:1018500000BF0198411E002801913FF421AF00BF55
:101860000198411E00280191E4D119E7002101608F
:10187000FFF764FB054600BF306880077FF50DAFBA
:10188000FFF75CFB401B02284FF00300F4D920E770
:10189000306A20F001003062306A20F004003062CB
:1018A000FFF74CFB054641F2883700BF306A8007DE
:1018B00020D5FFF743FB401BB8424FF00300F5D99A
:1018C00007E700BF306A40F004003062306A40F041
:1018D00001003062FFF732FB054641F2883700BF56
:1018E000306A800706D4FFF729FB401BB842F7D9BE
:1018F00037E000BFB8F1000F7FF4D5AEF06920F0FB
:101900008050F061CFE600BF306820F48030306056
:10191000306820F480203060FFF710FB054600BFE0
:10192000306880037FF59DAEFFF708FB401B6428FD
:101930004FF00300F4D9CCE6306840F480203060EA
:10194000306840F480303060FFF7F8FA054600BF99
:10195000306880033FF585AEFFF7F0FA401B64283E
:10196000F6D9032002B0BDE8F08100BF206AB0F5CF
:10197000803F05D17168A26821F400311143716084
:101980007168626A21F47411114308437060012088
:101990003866FFF7D3FA0446306880013FF598AE09
:1019A000FFF7CCFA001B02284FF00300F4D990E6B1
:1019B000411E0020B0EB116F1CBF012070474EF29A
:1019C0001002CEF2000251604EF62351CEF2000119
:1019D000F0230B70072190601160704710B590F8EC
:1019E0003C20012A4FF002023FD080F83D200268DF
:1019F000D2F804E0D2F808C00C682EF0700323433C
:101A000040F6FF34C4F20004A242536010DCB2F18D
:101A1000804F1FD040F20043C4F200039A4219D015
:101A200040F60003C4F200039A4213D017E000BF4F
:101A300040F60043C4F200039A420BD043F2004345
:101A4000C4F201039A4205D042F60043C4F20103F6
:101A50009A4204D149682CF0800319439160012116
:101A6000002280F83D1080F83C20104610BD000098
:101A7000002804BF0120704710B5044690F83D00CF
:101A800028B9002084F83C00204600F085F80220A8
:101A900084F83D00206840F6FF330268C4F200037A
:101AA00043F2004C9842C4F2010C21DCB0F1804FAB
:101AB0002CD040F20041C4F20001884226D040F60A
:101AC0000001C4F20001884220D0984224DCB0F129
:101AD000804F2FD040F20041C4F20001884229D04B
:101AE00040F60001C4F20001884223D026E000BF86
:101AF00040F60041C4F20001884207D0604505D09D
:101B000042F60041C4F201018842DED1A16822F010
:101B100070020A439842DADD40F60041C4F2000147
:101B2000884207D0604505D042F60041C4F2010169
:101B3000884203D1216922F440720A43A36922F04A
:101B40008001D4F804E0E268194360450160C26294
:101B5000C0F828E005D042F60041C4F201018842F5
:101B600001D16169016301214161002084F84610BF
:101B700084F83E1084F83F1084F8401084F8411037
:101B800084F8421084F8431084F8441084F8451017
:101B900084F83D1010BD000082B00068B0F1804FA5
:101BA00014D042F60041C4F2010188421BD141F237
:101BB0001800C4F20200016841F40061016000688D
:101BC00000F400600190019802B0704741F21800E3
:101BD000C4F20200416841F001014160406800F038
:101BE00001000090009802B07047000090F83D108E
:101BF00001291CBF01207047022180F83D100068B8
:101C000040F6FF31C4F2000188420FDCB0F1804F92
:101C10001ED040F20041C4F20001884218D040F6C4
:101C20000001C4F20001884212D018E040F60041E1
:101C3000C4F2000188420BD043F20041C4F201011A
:101C4000884205D042F60041C4F20101884206D123
:101C5000816801F00701062904BF00207047016870
:101C600041F001010160002070470000014600685A
:101C700041F21113026A1A4204D00122002081F8B5
:101C80003D207047026A40F244431A42F5D102688F
:101C900022F0010202600122002081F83D207047FD
:101CA00080B590F83C20012A4FF0020200F0C2807B
:101CB00080F83D20D0F800C04FF67772DCF808308D
:101CC00023EA0202CCF808200B684F2B28DC1F2BDC
:101CD00044DD202B45D0302B43D0402B40F0AC804E
:101CE000D1F804E0C968DCF82030DCF8202022F0CC
:101CF0000102CCF82020DCF8182022F0F00242EAA1
:101D0000011123F00A0242EA0E02CCF81810CCF8B6
:101D10002020DCF8081041F0470121F0300180E07C
:101D20006F2B27DDB3F5005F48D0B3F5805F7AD025
:101D3000702B40F08180D1E901E3C968DCF808200C
:101D400043EA0E0322F47F4243EA01211143CCF817
:101D50000810DCF8081041F0770162E00BB1102B9D
:101D60006AD1DCF8081021F07001194341F0070135
:101D700057E000BF502B35D0602B5DD1D1F804E087
:101D8000C968DCF82030DCF8202022F01002CCF802
:101D90002020DCF8182022F4704242EA013123F0BE
:101DA000A00242EA0E12CCF81810CCF82020DCF881
:101DB000081041F0670121F0100132E0D1E901E3A0
:101DC000C968DCF8082043EA0E0322F47F4243EAA4
:101DD00001211143CCF80810DCF8081041F48041CF
:101DE0001FE000BFD1F804E0C968DCF82030DCF85F
:101DF000202022F00102CCF82020DCF8182022F06C
:101E0000F00242EA011123F00A0242EA0E02CCF883
:101E10001810CCF82020DCF8081041F0570121F010
:101E20002001CCF808100022012180F83D1000218B
:101E300080F83C10104680BD0122F5E72DE9F04105
:101E400090F83C30012B04BF0220BDE8F0814FEA3E
:101E5000B202032A00F21C81DFE802F0024690DAA7
:101E6000036843F200461D6A1A6A25F0020522F053
:101E700001021A621A465C6852F818EF8F68D1F8AE
:101E800000C0C4F20106B34245EA070505D042F698
:101E90000047C4F20107BB4205D1CF6825F00C050D
:101EA00027F004073D43B34205D042F60046C4F292
:101EB0000106B34205D1D1E9056724F440743443E7
:101EC0003C432EF0730747EA0C075C609F614F6844
:101ED00009695F631D629F6947F008079F619F69F9
:101EE00027F004079F61C9E0036843F200461D6ABA
:101EF0001A6A25F0200522F010021A621A46D3F859
:101F000004C052F8188F8F68D1F800E0C4F20106BF
:101F1000B34245EA071505D042F60047C4F201076F
:101F2000BB4207D1CF686FF0400425F0C00504EA3A
:101F300007142543B34205D042F60044C4F201041D
:101F4000A34206D1D1E905462CF44067264347EA6F
:101F5000860C28F4E64444EA0E27C3F804C09F61C7
:101F60004F6809699F631D629F6947F400679F611D
:101F70009F6927F480679F617FE000BF036843F299
:101F800000461D6A1A6A25F4007522F480721A62EE
:101F90001A46D3F804C052F81CEF8F68D1F80080BD
:101FA000C4F20106B34245EA072505D042F60047D0
:101FB000C4F20107BB4208D1CF6840F2FF443F02A0
:101FC00025F4406527EA04042543B34205D042F6D0
:101FD0000044C4F20104A34206D1D1E905462CF421
:101FE0004057264347EA061C2EF0730747EA0807C6
:101FF000C3F804C0DF614F680969DF631D62DF69F0
:1020000047F00807DF61DF6927F00407DF6135E08B
:10201000036843F20047D3F820C01A6AC4F20107EC
:1020200022F480521A621A465C6852F81C5FD1F89A
:1020300000E08E68BB4205D042F60047C4F20107BB
:10204000BB4204D14F6924F4804444EA87142CF441
:10205000005747EA063725F4E64646EA0E265C6056
:10206000DE614E6809691E641F62DF6947F400671C
:10207000DF61DF6927F48067DF61090213681943B4
:1020800011600021002280F83C200846BDE8F08164
:102090000121002280F83C200846BDE8F0810000C4
:1020A000002804BF0120704710B5044690F83D0099
:1020B00028B9002084F83C00204600F085F8022072
:1020C00084F83D00206840F6FF330268C4F2000344
:1020D00043F2004C9842C4F2010C21DCB0F1804F75
:1020E0002CD040F20041C4F20001884226D040F6D4
:1020F0000001C4F20001884220D0984224DCB0F1F3
:10210000804F2FD040F20041C4F20001884229D014
:1021100040F60001C4F20001884223D026E000BF4F
:1021200040F60041C4F20001884207D0604505D066
:1021300042F60041C4F201018842DED1A16822F0DA
:1021400070020A439842DADD40F60041C4F2000111
:10215000884207D0604505D042F60041C4F2010133
:10216000884203D1216922F440720A43A36922F014
:102170008001D4F804E0E268194360450160C2625E
:10218000C0F828E005D042F60041C4F201018842BF
:1021900001D16169016301214161002084F8461089
:1021A00084F83E1084F83F1084F8401084F8411001
:1021B00084F8421084F8431084F8441084F84510E1
:1021C00084F83D1010BD00007047000041B108299F
:1021D00010D0042914BF00F1410200F13F020BE0CE
:1021E00090F83E20012A1CBF01207047022280F88F
:1021F0003E2013E000F140021278012A1CBF0120AA
:1022000070470222082907D0042914BF80F8412012
:1022100080F83F2002E000BF80F84020006801F015
:102220001F010122036A02FA01F123EA010202629C
:10223000026A114340F6FF32C4F20002904201628A
:102240000EDCB0F1804F25D040F20041C4F2000115
:1022500088421FD040F60001C4F2000118E000BF20
:1022600040F60041C4F20001884213D043F200421C
:10227000C4F2010242F600419042C4F2010101D0D1
:1022800088420ED1436C904243F40043436401D032
:10229000884206D1816801F00701062904BF0020A9
:1022A0007047016841F001010160002070470000A3
:1022B0007047000070470000002804BF01207047ED
:1022C00010B5044690F8410028B9002084F8400079
:1022D000204600F063F8242084F841002068D4E907
:1022E0000212C36823F40053C360036923F440530C
:1022F0001A430261D4E904231143C268194341F22D
:102300000C639A431143C1604169A26921F4407191
:10231000114343F60002C4F201029042416103D02E
:10232000FFF744F902E000BFFFF754F96268192192
:1023300048439100B0FBF1F048F21F51C5F2EB1198
:10234000A0FB01235A094FF69C73C0F6FF7302FBF2
:102350000300322303EB0010A0FB0101F02303EA8A
:102360005113206803EB0212C1F343111144816041
:10237000016921F490410161416921F02A01416123
:10238000C16841F40051C16000202021606484F8DC
:10239000411084F84210606310BD00002DE9F04147
:1023A00086B040F600050446C4F20105006805F554
:1023B000405100278842049702D006B0BDE8F08162
:1023C00041F21800C4F20200016802AE41F48041FB
:1023D0000160016840F2440801F4804101910199D3
:1023E0000168C4F2020841F004010160006831464E
:1023F00000F00400019001984FF400700290022058
:102400000390032005902846FEF78EFC4FF4806071
:10241000CDE90207284631460497FEF785FC40F2D5
:10242000300508F11400C2F200058026C5E9000756
:102430002846C5E90276C5E90477C5E90677FEF7BF
:1024400093FB002818BFFEF73BFAE5636C6240F28D
:102450007405C2F2000510200021C5E9008028465D
:10246000C5E90216C5E90411C5E90611FEF77CFBB2
:10247000002818BFFEF724FAA5636C6206B0BDE819
:10248000F081000070B582B0044690F84200202828
:102490000AD113460A4600294FF0010018BF002B4D
:1024A00006D102B070BD00BF022002B070BD00BFF7
:1024B000002522202563A262A385656484F842007A
:1024C0002168E06B43F6114C43F6715E43F69526A6
:1024D000C0F6000CC0F6000EC0F600060431C0E9DC
:1024E0000ACEC0E90C65FEF78FFB019520680168F4
:1024F0000191406801900198206928B3206850E854
:10250000030F216840F4807041E80302E2B12068C3
:1025100050E8030F216840F4807041E803029AB14B
:10252000206850E8030F216840F4807041E80302FE
:1025300052B1206850E8030F216840F4807041E8F0
:102540000302002ADAD100BF206850E8050F216895
:1025500040F0010041E80502E2B1206850E8050FB3
:10256000216840F0010041E805029AB1206850E876
:10257000050F216840F0010041E8050252B12068D2
:1025800050E8050F216840F0010041E80502002AEB
:10259000DAD100BF206850E8050F216840F0400004
:1025A00041E80502DAB1206850E8050F216840F0E3
:1025B000400041E8050292B1206850E8050F21680B
:1025C00040F0400041E805024AB1206850E8050F9C
:1025D000216840F0400041E80502002ADAD10020DD
:1025E00002B070BD70470000704700002DE9F04355
:1025F00081B0044690F84100202840F0B180884620
:1026000000294FF0010000F0D6801646002A00F0A5
:10261000D2800020606421201D4684F84100FEF72E
:102620008DFCA684E684A1680646B1F5805F03D1DF
:102630002069002800F0988047464FF00008E18CA0
:102640002068002900F0968005F101090BE000BF29
:1026500047B317F8011B4160E18C0139E184E18C3B
:10266000002900F0878001680906F1D4B9F1000F54
:102670000AD0EDB1FEF762FC801BA84218D8206892
:1026800001680906F6D5E3E701680906E0D40168A8
:1026900009065CBF01685FEA0161D9D401680906D7
:1026A000F2D5D5E738F8021B00276FF35F21D2E798
:1026B000206850E8030F216820F4D07041E803023D
:1026C000BAB3206850E8030F216820F4D07041E8C5
:1026D000030272B3206850E8030F216820F4D07021
:1026E00041E803022AB3206850E8030F216820F470
:1026F000D07041E80302002ADAD11AE0206850E8DD
:10270000050F216820F0010041E80502DAB12068D8
:1027100050E8050F216820F0010041E8050292B160
:10272000206850E8050F216820F0010041E805020B
:102730004AB1206850E8050F216820F0010041E807
:102740000502002ADAD1202084F8410084F84200F2
:10275000002084F84000032001B0BDE8F08300BFF2
:10276000022001B0BDE8F0830027E18C2068002939
:102770007FF46AAF0168490619D4FDB1691C0DD117
:102780000168490613D4016849065CBF01685FEA25
:1027900041610CD401684906F2D508E0FEF7CEFB92
:1027A000801BA8420AD8206800684006F6D5202081
:1027B00084F84100002001B0BDE8F083206850E8B3
:1027C000030F216820F4D07041E80302002A3ED0B4
:1027D000206850E8030F216820F4D07041E803021C
:1027E000AAB3206850E8030F216820F4D07041E8B4
:1027F000030262B3206850E8030F216820F4D07010
:1028000041E80302002AD9D121E000BF206850E846
:10281000050F216820F0010041E80502002A3FF47D
:1028200092AF206850E8050F216820F0010041E8D0
:102830000502002A3FF487AF206850E8050F2168A1
:1028400020F0010041E80502002A3FF47CAF206837
:1028500050E8050F216820F0010041E80502002A38
:10286000D4D170E770B50446002550B1264600BFAC
:1028700000F010F801462846FDF776FC013E0546BB
:10288000F6D12046FDF7AAFE01462846FDF7C4FC16
:1028900070BD0000B0B540F60044C4F2010420460B
:1028A0004FF480510122FEF743FB1420FEF70EFA8D
:1028B00020464FF480510022FEF73AFB20464FF4A9
:1028C0000051FEF72FFB0028F8D040F20C15C2F2A1
:1028D00000052868002141622846FFF787F900BFFC
:1028E00020464FF40051FEF71DFB0028F8D1284682
:1028F000FFF7BCF92868406AFDF786FE0023C4F2A2
:102900004D030022FDF7DFFDFDF7D6FEB0BD000050
:1029100070B50446002550B1264600BF00F010F8FF
:1029200001462846FDF720FC013E0546F6D120462B
:10293000FDF754FE01462846FDF76EFC70BD000011
:10294000B0B540F60044C4F2010420464FF4804183
:102950000122FEF7EDFA1420FEF7B8F920464FF4F5
:1029600080410022FEF7E4FA20464FF40041FEF7D2
:10297000D9FA0028F8D040F20C15C2F200052868F8
:10298000002141622846FFF731F900BF20464FF48D
:102990000041FEF7C7FA0028F8D12846FFF766F98C
:1029A0002868406AFDF730FE0023C4F24D03002280
:1029B000FDF789FDFDF780FEB0BD000070B504464F
:1029C000002550B1264600BF00F010F80146284609
:1029D000FDF7CAFB013E0546F6D12046FDF7FEFD98
:1029E00001462846FDF718FC70BD0000B0B541F265
:1029F0000004C4F20104204640210122FEF798FAA7
:102A00001E20FEF763F9204640210022FEF790FACF
:102A100020468021FEF786FA0028F9D040F20C15F6
:102A2000C2F200052868002141622846FFF7DEF85F
:102A300020468021FEF776FA0028F9D12846FFF7D4
:102A400015F92868406AFDF7DFFD0023C4F24D0345
:102A50000022FDF738FDFDF72FFEB0BD70B504462E
:102A6000002550B1264600BF00F010F80146284668
:102A7000FDF77AFB013E0546F6D12046FDF7AEFD97
:102A800001462846FDF7C8FB70BD0000B0B541F215
:102A90000004C4F2010420464FF480710122FEF7C5
:102AA00047FA2820FEF712F920464FF480710022E1
:102AB000FEF73EFA20464FF40071FEF733FA002885
:102AC000F8D040F20C15C2F20005286800214162DE
:102AD0002846FFF78BF800BF20464FF40071FEF741
:102AE00021FA0028F8D12846FFF7C0F82868406A84
:102AF000FDF78AFD0023C4F24D030022FDF7E3FC3D
:102B0000FDF7DAFDB0BD0000FEE700002DE9F0435F
:102B100083B0044600680D4601680A9F0B9E41F48D
:102B2000807199469046016020464FF001110022C5
:102B30003B46009600F0AEF850B120680068C00532
:102B400044BF4FF400702064032003B0BDE8F0835D
:102B5000206805F0FE0101610221C0F2010120465A
:102B60003A46334600F080F920B1012003B0BDE8B9
:102B7000F08300BF00200290206832464169029134
:102B80008069394602900298204600F0DDF958B17C
:102B9000206C0428E9D12068016841F400710160CB
:102BA000012003B0BDE8F0832068B9F1010F0AD01D
:102BB0004FEA1821016120463946324600F0C4F937
:102BC0000028E5D120685FFA88F10161002003B098
:102BD000BDE8F08370B50368044653F8140F40074E
:102BE00011D40E46481C29D086BB00BF186840058A
:102BF00027D4FEF7A3F9236853F8140F400739D5FB
:102C000018684007F2D5002070BD00BF1868400763
:102C1000F9D41868400514D418684007F3D418682C
:102C200040050ED418684007EDD41868400508D454
:102C3000186840074FF0000048BF70BD1868400595
:102C4000E4D56FF480601860042014E0154603E0BA
:102C500053F8140F4007D6D418684005F1D4FEF796
:102C60006DF9401B2368B042F2D958694007EFD490
:102C7000202000E0202000212022216384F83D2034
:102C800084F83E10226C10432064012084F83C102C
:102C900070BD00002DE9F041054600681E4614464F
:102CA00001F47F0201338FB242D0DDF81880B2F513
:102CB000803F40F0878040693840C01BB0FA80F008
:102CC0004009A04240F0C8804EB924E04069384035
:102CD000C01BB0FA80F04009A04240F0BD80FEF772
:102CE0002DF9A0EB08012868B142EFD941693940BC
:102CF000C91BB1FA81F14909A142E7D19BE000BFAC
:102D000040693840C01BB0FA80F04009A0424FF043
:102D1000000040F0A680FEF711F9286841693940AB
:102D2000C91BB1FA81F14909A142E9D183E000BF91
:102D3000B2F5803F24D100BF41693940C91BB1FAC7
:102D400081F14909A14240F0878041693940C91B9E
:102D5000B1FA81F14909A14240F07E8041693940D0
:102D6000C91BB1FA81F14909A14275D141693940C4
:102D7000C91BB1FA81F14909A142DDD06CE000BF65
:102D800081693940C91BB1FA81F14909A14263D176
:102D900081693940C91BB1FA81F14909A1425BD16E
:102DA00081693940C91BB1FA81F14909A14253D166
:102DB00081693940C91BB1FA81F14909A142DFD0CB
:102DC0004AE000BF80693840C01BB0FA80F040097B
:102DD000A04241D146B923E080693840C01BB0FA17
:102DE00080F04009A0423BD1FEF7A8F8A0EB080113
:102DF0002868B142F0D981693940C91BB1FA81F123
:102E00004909A142E8D116E080693840C01BB0FAF8
:102E100080F04009A0424FF0000018BFBDE8F081EB
:102E2000FEF78CF8286881693940C91BB1FA81F135
:102E30004909A142E8D100202021286385F83D10EE
:102E400085F83E00296C41F02001296485F83C009A
:102E50000120BDE8F08100BF0020BDE8F08100BF87
:102E60000020BDE8F0810000F0B581B004460068A4
:102E70001D4643698FB203EA0701B94202D100201F
:102E800001B0F0BD41691646013201F4806125D0E0
:102E9000002940D1CEB100BFFEF750F8411B206899
:102EA000B14203D941693940B9424BD141693940F6
:102EB000B942E4D041694905EED52CE04169394079
:102EC000B942DCD04169490525D4FEF737F82068BE
:102ED00041693940B942F1D0202024E0D9B9416993
:102EE0003940B942CBD04169490514D441693940D0
:102EF000B942C4D0416949050DD441693940B9424C
:102F0000BDD04169490506D441693940B942B6D0BE
:102F100041694905E3D5016841F4007101606FF42E
:102F200080614161042000212022216384F83D203A
:102F300084F83E10226C1043206484F83C10012079
:102F400001B0F0BD2020EEE770B50368044653F8E9
:102F5000140F000611D40E46481C29D086BB00BFB2
:102F60001868400527D4FDF7E9FF236853F8140FCC
:102F7000000639D518680006F2D5002070BD00BFE4
:102F800018680006F9D41868400514D418680006BB
:102F9000F3D4186840050ED418680006EDD41868FC
:102FA000400508D4186800064FF0000048BF70BD07
:102FB00018684005E4D56FF480601860042014E0C0
:102FC000154603E053F8140F0006D6D418684005E0
:102FD000F1D4FDF7B3FF401B2368B042F2D9586922
:102FE0000006EFD4202000E02020002120222163D1
:102FF00084F83D2084F83E10226C104320640120A8
:1030000084F83C1070BD000080B582B041F214001D
:10301000C4F202000168002241F001010160006871
:10302000002100F00100019001980E20FEF7A2F9A6
:103030000E20FEF78BF90F2000210022FEF79AF9EF
:103040000F2002B0BDE88040FEF780B92DE9F04FB7
:1030500085B041F21800C4F20200016840F6004653
:1030600041F0100101600168C4F2010601F0100195
:10307000019101990168002241F02001016001687D
:103080004FF4A04701F020010191019901684FF030
:10309000000841F004010160016801F004010191A0
:1030A0000199016841F00801016000684FF4A041F6
:1030B00000F00800019001983046FDF739FF06F551
:1030C000806528464FF4A0710022FDF731FFA6F578
:1030D000806420464FF480710022FDF729FF01979C
:1030E00001AF4FF0010A4FF0020B4FF003093046D9
:1030F0003946CDF808A0CDF80CB0CDF81090FDF70A
:1031000013FE4FF42040CDE9010830463946CDF892
:103110000C80FDF709FE4FF4A07001A981E8010CB5
:1031200028463946CDF81090FDF7FEFD4FF420708B
:10313000CDE9010828463946CDF80C80FDF7F4FDAD
:103140004FF4807001A981E8010C20463946CDF882
:103150001090FDF7E9FD05B0BDE8F08F80B540F2B5
:10316000B80045F20041C2F20000C4F2000148F28A
:10317000A06200234FF4804CC0F2010280E80E00F0
:10318000C0E9033CC0E90533C0E90733FDF7DCFEC5
:10319000002808BF80BDBDE88040FDF791BB00005E
:1031A00080B586B040F20C1042F600420021C2F217
:1031B0000000C4F2010247234FF6FF7C0591CDE9E0
:1031C0000311CDE90011C0E90023C0E9021CC0E9E8
:1031D00004118161FEF74CFC002818BFFDF770FB5D
:1031E0004FF48050029040F20C10C2F2000002A98D
:1031F000FEF756FD002818BFFDF762FB40F20C10E9
:10320000C2F200006946FEF7E9FB002818BFFDF78F
:1032100057FB06B080BD000010B594B040F25410CA
:103220000021C2F200004FF08042472344F61F64A1
:103230000E91CDE90C110991CDE90711CDE90511E8
:10324000CDE90311CDE90111C0E90023C0E9021461
:1032500001618161FEF70CFC002818BFFDF730FB0F
:103260004FF480500B9040F25410C2F200000BA9B2
:10327000FEF716FD002818BFFDF722FB40F25410A0
:10328000C2F20000FEF70CFF002818BFFDF718FB84
:1032900040F254100024C2F2000008A9CDE908440D
:1032A000FEF79CFB002818BFFDF70AFB6020019089
:1032B0004FF4FA70CDE9020440F25410C2F200005B
:1032C00001A900220594FEF7B9FD002818BFFDF7FB
:1032D000F7FA40F25410C2F2000001A90422FEF7EE
:1032E000ADFD002818BFFDF7EBFA40F25410C2F212
:1032F000000001A90822FEF7A1FD002818BFFDF774
:10330000DFFA40F25414C2F2000401A920460C2254
:10331000FEF794FD002818BFFDF7D2FA20680021BF
:10332000B0F1804F129101D014B010BD41F21800DD
:10333000C4F20200016841F004010160006810A9B4
:1033400000F004000F900F980F20109002201190B1
:10335000139040F60000C4F20100FDF7E5FC14B044
:1033600010BD000080B540F29C1043F60001C2F28F
:103370000000C4F2010100234FF00C0C4FF4165270
:1033800080E80E00C0E90333C0E905C3C361FEF75E
:1033900093FF002808BF80BDBDE88040FDF790BACC
:1033A000FEE70000FEE700002DE9F04F85B040F297
:1033B000B80400254FF480760127C2F200040DF115
:1033C000120B0DF113084FF0000900BF09F1B00016
:1033D0008DF8100004A8CDE90007204678210022CE
:1033E00001230296FDF76CFE0DF11100CDE90007F7
:1033F00020467821002201238DF811500296FDF716
:103400005FFE10208DF81200204678210022012353
:10341000CDE900B70296FDF753FE4FF0000A00BF5A
:1034200020467821402201238DF81350CDE90087F2
:103430000296FDF745FE0AF101004FFA80FABAF153
:10344000FF3FEDDCB9F1070F09F10109BED305B06B
:10345000BDE8F08F80B5C820FDF724FCBDE88040B2
:1034600000F094BC2DE9F04F89B040B20D46A2F1B6
:103470002001002820EAE0724FF0100748BF023513
:10348000A5F1500047EA121402F00F07102BCEB23C
:1034900040F03A8140F2B8088DF818004FF0010B67
:1034A00006A8C2F200084FF48079CDE9000B40462F
:1034B000782100220123CDF80890FDF701FE0DF1DF
:1034C0001900CDE9000B40467821002201238DF838
:1034D0001940CDF80890FDF7F3FD0DF11A00CDE984
:1034E000000B40467821002201238DF81A70CDF898
:1034F00008904FF48079FDF7E3FD44F270713001DC
:10350000C0F60001085C01EB06168DF81B0005975C
:103510000DF11B074046782140220123CDE9007BB5
:10352000CDF80890FDF7CCFD7078317996F802A0BF
:10353000049496F8039003918DF81B00404678217F
:10354000402201234FF48074CDE9007B0294FDF703
:10355000B7FD40467821402201234FF480748DF856
:103560001BA0CDE9007B0294FDF7AAFD404678211F
:10357000402201238DF81B90CDE9007B0294FDF7DA
:103580009FFD039878218DF81B00404640220123BF
:10359000CDE9007B0294FDF793FD707978218DF8D9
:1035A0001B00404640220123CDE9007B0294FDF739
:1035B00087FDB07978218DF81B0040464022012319
:1035C000CDE9007B0294FDF77BFDF07978218DF841
:1035D0001B00404640220123CDE9007B0294FDF709
:1035E0006FFDA5F14F008DF81C0007A8CDE9000B79
:1035F00040467821002201230294FDF761FD0498E2
:1036000078218DF81D000DF11D00CDE9000B40461D
:10361000002201230294FDF753FD059878218DF8CF
:103620001E000DF11E00CDE9000B404600220123D3
:103630000294FDF745FD307A0DF11F058DF81F004E
:103640004046782140220123CDE9005B0294FDF73A
:1036500037FD707A78218DF81F0040464022012303
:10366000CDE9005B0294FDF72BFDB07A78218DF84F
:103670001F00404640220123CDE9005B0294FDF784
:103680001FFDF07A78218DF81F004046402201236B
:10369000CDE9005B0294FDF713FD307B78218DF8B6
:1036A0001F00404640220123CDE9005B0294FDF754
:1036B00007FD707B78218DF81F00404640220123D2
:1036C000CDE9005B02944FF48074FDF7F9FCB07B08
:1036D00078218DF81F00404640220123CDE9005B90
:1036E00002944FF48074FDF7EBFCF07BCDE9005BB6
:1036F0008DF81F0040467821402201230294FDF7F7
:10370000DFFC09B0BDE8F08F40F2B80B8DF8200067
:103710004FF0010A08A8C2F2000B4FF48078CDE9FF
:10372000000A5846782100220123CDF80880FDF7D1
:10373000C7FC0DF12100CDE9000A5846782100228E
:1037400001238DF82140CDF80880FDF7B9FC0DF17B
:103750002200CDE9000A58467821002201238DF885
:103760002270CDF80880FDF7ABFC44F2485106EB1F
:103770004600C0F6000111F8102001EB40058DF85D
:1037800023200DF123065846782140220123CDE95C
:10379000006ACDF80880FDF793FC6878AF78EC7884
:1037A00095F804908DF82300584678214022012393
:1037B000CDE9006ACDF80880FDF782FC58467821F3
:1037C000402201238DF82370CDE9006ACDF80880EE
:1037D000FDF776FC58467821402201238DF82340DE
:1037E000CDE9006ACDF80880FDF76AFC58467821DB
:1037F000402201238DF82390CDE9006ACDF808809E
:10380000FDF75EFC687978218DF823005846402248
:103810000123CDE9006ACDF80880FDF751FC09B01D
:10382000BDE8F08F2DE9F04F87B00646A1F15000BA
:1038300040F2B8058DF81400012705A8C2F2000572
:10384000144604914FF4807ACDE900072846782188
:1038500000220123CDF808A0FDF732FC300900F169
:1038600010080DF11500CDE9000728467821002247
:1038700001238DF81580CDF808A0FDF721FC0DF18E
:10388000160006F00F0BCDE900072846782100222C
:1038900001238DF816B0CDF808A0FDF711FC44F611
:1038A0005251C4EB0420C0F6000101EB40064FF07A
:1038B000FF340DF1170900BF3019407878218DF8D9
:1038C0001700284640220123CDE90097CDF808A033
:1038D000FDF7F6FB01341F2CEED1049840F2B8043A
:1038E0004F388DF818004FF0010A06A8C2F2000404
:1038F0004FF48079CDE9000A204678210022012387
:10390000CDF80890FDF7DCFB0DF11900CDE9000AB8
:1039100020467821002201238DF81980CDF80890E7
:10392000FDF7CEFB0DF11A00CDE9000A2046782103
:10393000002201238DF81AB0CDF80890FDF7C0FBE6
:10394000FE250DF11B0700BF7019407878218DF816
:103950001B00204640220123CDE9007ACDF80890D3
:10396000FDF7AEFB0135B5F58F7FEDD107B0BDE8B2
:10397000F08F00002DE9F04F85B0002B04910390EB
:103980007CD00E981C464508981E00905842174659
:10399000591E4FF000085FFA80FB42F210790026B2
:1039A0004FF0000A0291019212E000BF0126039934
:1039B00040F0300205FB08110E9BC8B20499D2B248
:1039C000FFF750FD08F10108A0450AF1010A55D0A2
:1039D0006FEA0A00C0B2584502D101202AE000BFB8
:1039E00000996FEA0800A1EB0801C9B2032900EBB6
:1039F000040101D2012009E001F0FC0200230120B2
:103A00000433DFB2974200FB09F0F9D1019F11F0B6
:103A100003010FD0012903D100EB8000400009E031
:103A20004FF47A72424302294FF0640108BF00FB51
:103A300001F21046B7FBF0F04CF6CD41CCF6CC418C
:103A4000A0FB0112D10801EB8101002EA0EB410087
:103A5000ADD102994145AADD0028A7D10398049968
:103A600005FB08000E9BC0B22022FFF7FBFC0026DE
:103A700008F10108A0450AF1010AA9D105B0BDE885
:103A8000F08F00007047000070470000FDF7F6BBA4
:103A900070470000406A01684A6990F84130212B64
:103AA0002DD112F080022AD00021C184016851E892
:103AB000031F026821F0C00142E80313DBB1016873
:103AC00051E8031F026821F0C00142E8031393B1DB
:103AD000016851E8031F026821F0C00142E80313A6
:103AE0004BB1016851E8031F026821F0C00142E8B0
:103AF0000313002BDAD1202180F8411001684969B5
:103B000090F84220222A40F07D8011F0400179D0C7
:103B10000021C185016851E8031F026821F49071FA
:103B200042E80313BBB3016851E8031F026821F4A4
:103B3000907142E8031373B3016851E8031F0268F0
:103B400021F4907142E803132BB3016851E8031F7D
:103B5000026821F4907142E80313002BDAD11AE0D5
:103B6000016851E8051F026821F0010142E80513D0
:103B7000DBB1016851E8051F026821F0010142E84C
:103B8000051393B1016851E8051F026821F0010196
:103B900042E805134BB1016851E8051F026821F0A6
:103BA000010142E80513002BDAD1016B012924D170
:103BB000016851E8031F026821F0100142E8031375
:103BC000DBB1016851E8031F026821F0100142E8EF
:103BD000031393B1016851E8031F026821F010013B
:103BE00042E803134BB1016851E8031F026821F05A
:103BF000100142E80313002BDAD1202180F8421093
:103C000000210163416C41F010014164FEF752BB99
:103C10000168406A0968890600F19F800021C1851A
:103C2000016851E8031F026821F4807142E8031320
:103C3000E3B1016851E8031F026821F4807142E892
:103C400003139BB1016851E8031F026821F48071DE
:103C500042E8031353B1016851E8031F026821F4DD
:103C6000807142E80313002BDAD100BF016851E8EC
:103C7000051F026821F0010142E80513BBB301688A
:103C800051E8051F026821F0010142E8051373B3F2
:103C9000016851E8051F026821F0010142E805139F
:103CA0002BB3016851E8051F026821F0010142E8C9
:103CB0000513002BDAD11AE0016851E8051F0268EC
:103CC00021F0400142E80513DBB1016851E8051F0E
:103CD000026821F0400142E8051393B1016851E800
:103CE000051F026821F0400142E805134BB101684D
:103CF00051E8051F026821F0400142E80513002B3E
:103D0000DAD1202180F84210016B012925D100BFB2
:103D1000016851E8031F026821F0100142E8031313
:103D2000DBB1016851E8031F026821F0100142E88D
:103D3000031393B1016851E8031F026821F01001D9
:103D400042E803134BB1016851E8031F026821F0F8
:103D5000100142E80313002BDAD100214163016B0B
:103D6000012918BFFEF73EBC818DFEF7A1BA000005
:103D7000406A01214163016B012918BFFEF734BC81
:103D8000818D4908FEF794BAFEE70000F0B583B0D4
:103D900040F2B80440F20C07C2F200044FF4807500
:103DA0000126C2F200072046782100220123CDE936
:103DB00000760295FDF784F9781CCDE900062046CF
:103DC0007821002201230295FDF77AF9B81CCDE98C
:103DD000000620467821002201230295FDF770F9A4
:103DE000F81CCDE900062046782100220123029527
:103DF000FDF766F9381DCDE900062046782100223E
:103E000001230295FDF75CF9781DCDE900062046F7
:103E10007821002201230295FDF752F9B81DCDE962
:103E2000000620467821002201230295FDF748F97B
:103E3000F81DCDE9000620467821002201230295D5
:103E4000FDF73EF907F10800CDE90006204678218C
:103E5000002201230295FDF733F907F10900CDE9AE
:103E6000000620467821002201230295FDF728F95B
:103E700007F10A00CDE9000620467821002201233F
:103E80000295FDF71DF907F10B00CDE9000620466C
:103E90007821002201230295FDF712F907F10C00A9
:103EA000CDE9000620467821002201230295FDF786
:103EB00007F907F10D00CDE9000620467821002220
:103EC00001230295FDF7FCF807F10E00CDE900068D
:103ED00020467821002201230295FDF7F1F807F131
:103EE0000F00CDE90006204678210022012302952B
:103EF000FDF7E6F807F11000CDE90006204678212D
:103F0000002201230295FDF7DBF807F11100CDE94E
:103F1000000620467821002201230295FDF7D0F803
:103F200007F11200CDE90006204678210022012386
:103F30000295FDF7C5F807F11300CDE9000620460C
:103F40007821002201230295FDF7BAF807F1140049
:103F5000CDE9000620467821002201230295FDF7D5
:103F6000AFF807F11500CDE90006204678210022C0
:103F700001230295FDF7A4F807F11600CDE900062C
:103F800020467821002201230295FDF799F807F1D8
:103F90001700CDE900062046782100220123029572
:103FA000FDF78EF807F11800CDE9000620467821CC
:103FB000002201230295FDF783F807F11900CDE9EE
:103FC000000620467821002201230295FDF778F8AB
:103FD00007F11A00CDE900062046782100220123CE
:103FE0000295FDF76DF803B0F0BD000080B582B01A
:103FF000019040F29C10C2F2000001A901224FF68C
:10400000FF73FEF7F3FA019802B080BD92B0302042
:104010008DF80B00FDF740F900240120CDE90D4497
:10402000CDE90B4408900C904FF4E0104FF4803130
:104030000225119008A8CDE90914CDE90F51FDF72B
:10404000DDFA28B1EFF3108072B600BFFEE700BFC3
:104050000F20CDE903054FF48060CDE9060403A8E5
:1040600002210594FDF7C2F920B1EFF3108072B67A
:10407000FEE700BFFEF7EAFFFEF7C6FFFFF76EF8A8
:10408000FFF78EF8FFF76EF9FFF7C6F8FFF7E2F9D2
:10409000FFF78AF9002000210022FFF7C3FB102060
:1040A00000210122FFF7BEFB202000210222FFF7A2
:1040B000B9FB3020002131221023FFF7D3F938203B
:1040C00000213A221023FFF7CDF90020022100221F
:1040D000FFF7A8FB102002210122FFF7A3FB2020FD
:1040E00002210222FFF79EFB302002213222102300
:1040F000FFF7B8F9382002213A221023FFF7B2F96E
:10410000002004210022FFF78DFB10200421012252
:10411000FFF788FB202004210222FFF783FB3020D9
:10412000042133221023FFF79DF9382004213A227D
:104130001023FFF797F9002006210022FFF772FBFA
:10414000102006210122FFF76DFB2020062102220C
:10415000FFF768FB3020062134221023FFF782F995
:10416000382006213A221023FFF77CF940F254143C
:10417000C2F2000420460021FEF728F82046042160
:10418000FEF724F820460821FEF720F820460C21EF
:10419000FEF71CF820684FF4FA714FF010094163E4
:1041A0008163C163016405E0206806644FF47A709E
:1041B000FCF778FD40F29C10C2F200000DF10B01FB
:1041C0000122FEF75FF90520FEF74CFB8246FCF763
:1041D00060FA044650460F46FCF723FAC5B228465B
:1041E000FCF701FA02460B4620463946FCF7F3F885
:1041F00040F20008C4F2240800224346FCF7F1F81C
:10420000FCF728FA0446402000212A460223CDF874
:104210000090FFF7AFFB502000212E221023FFF764
:1042200021F95820002122460123CDF80090FFF704
:10423000A1FB6020002163221023FFF713F96820FF
:1042400000216D221023FFF70DF90520FEF760FB1A
:104250008346FCF71EFA044658460E46FCF7E1F981
:10426000C5B22846FCF7BFF902460B462046314648
:10427000FCF7B1F800224346FCF7B3F8FCF7EAF983
:104280000446402002212A460223CDF80090FFF781
:1042900071FB502002212E221023FFF7E3F8582053
:1042A000022122460123CDF80090FFF763FB602036
:1042B000022163221023FFF7D5F8682002216D2226
:1042C0001023FFF7CFF80520FEF778FB0546FCF733
:1042D000E0F9064628460F46FCF7A3F9C4B220468B
:1042E000FCF781F902460B4630463946FCF773F875
:1042F00000224346FCF775F8FCF7ACF9064640206F
:10430000042122460223CDF80090FFF733FB502012
:1043100004212E221023FFF7A5F85820042132464D
:104320000123CDF80090FFF725FB602004216322D4
:104330001023FFF797F8682004216D221023FFF760
:1043400091F80520FEF78AFB8046FCF7A2F90646A5
:1043500040460F46FCF765F9C4B22046FCF743F926
:1043600002460B4630463946FCF735F8002300225A
:10437000C4F22403FCF735F8FCF76CF9064640203C
:10438000062122460223CDF80090FFF7F3FA5020D1
:1043900006212E221023FFF765F858200621324609
:1043A0000123CDF80090FFF7E5FA60200621632293
:1043B0001023FFF757F8682006216D221023FFF71E
:1043C00051F89DF80B003138C0B2072804D83FA13E
:1043D00051F8200000F09AF850464FF08141FCF768
:1043E000E1F840F25414C2F2000440F2574618B902
:1043F0002068466313E000BF50464FF08141FCF750
:10440000DFF860B920684FF4FA71416340F60000AC
:10441000C4F201004FF480710122FCF789FD584677
:104420004FF08141FCF7BEF810B92068866312E0B6
:1044300058464FF08141FCF7C3F860B920684FF44B
:10444000FA71816340F60000C4F201004FF48071FC
:104450000122FCF76DFD28464FF08141FCF7A2F8E0
:1044600010B92068C66312E028464FF08141FCF77E
:10447000A7F860B920684FF4FA71C16340F60000F4
:10448000C4F201004FF480710122FCF751FD404657
:104490004FF08141FCF786F800283FF485AE404696
:1044A0004FF08141FCF78CF800287FF47FAE206844
:1044B0004FF4FA71016440F60000C4F201004FF4B9
:1044C00080710122FCF734FD70E600BF83530008C1
:1044D00083530008695300086953000876530008A5
:1044E000765300085C5300085C53000802E008C8DB
:1044F000121F08C1002AFAD170477047002001E05E
:1045000001C1121F002AFBD17047000010B50446FC
:1045100001E0FFF76BFD14F8010B04490028F8D106
:10452000BDE810400A20FFF761BD00000000002038
:104530000000000000000000010203040607080953
:104540000000000001020304000000000000000061
:10455000002F000000000700070000147F147F14E4
:1045600000242A7F2A12006264081323003649556A
:10457000225000000503000000001C224100000042
:1045800041221C000014083E08140008083E0808D8
:10459000000000A060000008080808080000606033
:1045A0000000002010080402003E5149453E000072
:1045B000427F4000004261514946002141454B3154
:1045C000001814127F10002745454539003C4A4920
:1045D0004930000171090503003649494936000692
:1045E0004949291E000036360000000056360000FA
:1045F0000008142241000014141414140000412275
:10460000140800020151090600324959513E007C4C
:104610001211127C007F49494936003E4141412236
:10462000007F4141221C007F49494941007F09091F
:104630000901003E4149497A007F0808087F0000CF
:10464000417F4100002040413F01007F081422418A
:10465000007F40404040007F020C027F007F040842
:10466000107F003E4141413E007F09090906003E9E
:104670004151215E007F09192946004649494931C7
:104680000001017F0101003F4040403F001F2040EA
:10469000201F003F4038403F0063140814630007A8
:1046A0000870080700615149454300007F414100FF
:1046B00000552A552A55000041417F00000402019F
:1046C000020400404040404000000102040000207D
:1046D00054545478007F48444438003844444420BB
:1046E00000384444487F00385454541800087E0968
:1046F00001020018A4A4A47C007F08040478000030
:10470000447D4000004080847D00007F10284400EC
:104710000000417F4000007C04180478007C0804FD
:10472000047800384444443800FC24242418001839
:10473000242418FC007C0804040800485454542025
:1047400000043F444020003C4040207C001C2040AE
:10475000201C003C4030403C004428102844001CF1
:10476000A0A0A07C004464544C44141414141414E9
:104770000000000000000000000000000000000039
:10478000000000F8000000000000003330000000CE
:1047900000100C06100C06000000000000000000D5
:1047A00040C07840C0784000043F04043F04040047
:1047B000007088FC08300000001820FF211E000057
:1047C000F008F000E018000000211C031E211E006C
:1047D00000F00888700000001E21232419272110F2
:1047E00010160E0000000000000000000000000095
:1047F000000000E01804020000000007182040003C
:1048000000020418E000000000402018070000002B
:10481000404080F0804040000202010F010202008F
:10482000000000F0000000000101011F0101010073
:10483000000000000000000080B0700000000000D8
:104840000000000000000000000101010101010161
:1048500000000000000000000030300000000000F8
:1048600000000000806018040060180601000000CD
:1048700000E010080810E000000F102020100F00CA
:10488000001010F8000000000020203F2020000051
:1048900000700808088870000030282422213000A9
:1048A00000300888884830000018202020110E00B1
:1048B0000000C02010F8000000070424243F24005A
:1048C00000F80888880808000019212020110E002F
:1048D00000E0108888180000000F112020110E0041
:1048E00000380808C83808000000003F0000000039
:1048F0000070880808887000001C222121221C00FA
:1049000000E010080810E0000000312222110F0022
:10491000000000C0C00000000000003030000000B7
:104920000000008000000000000080600000000027
:104930000000804020100800000102040810200040
:10494000404040404040400004040404040404008B
:104950000008102040800000002010080402010020
:10496000007048080808F000000000303601000020
:10497000C030C828E810E0000718272423140B00D3
:104980000000C038E0000000203C2302022738204D
:1049900008F8888888700000203F202020110E0031
:1049A000C030080808083800071820202010080028
:1049B00008F808080810E000203F202020100F0011
:1049C00008F88888E8081000203F202023201800DD
:1049D00008F88888E8081000203F20000300000045
:1049E000C03008080838000007182020221E0200E6
:1049F00008F808000008F808203F210101213F20A5
:104A0000000808F8080800000020203F20200000CF
:104A100000000808F8080800C08080807F000000BF
:104A200008F888C028180800203F200126382000F8
:104A300008F8080000000000203F2020202030005F
:104A400008F8F800F8F80800203F003F003F200079
:104A500008F830C00008F808203F200007183F0081
:104A6000E01008080810E0000F10202020100F00B0
:104A700008F808080808F000203F210101010000A3
:104A8000E01008080810E0000F18242438504F00E8
:104A900008F8888888887000203F2000030C3020A8
:104AA00000708808080838000038202121221C00E6
:104AB000180808F8080818000000203F200000002F
:104AC00008F808000008F808001F202020201F0018
:104AD0000878880000C83808000007380E01000078
:104AE000F80800F80008F800033C0700073C030042
:104AF000081868808068180820302C03032C3020A8
:104B00000838C800C83808000000203F2000000016
:104B100010080808C838080020382621202018006E
:104B2000000000FE020202000000007F4040400042
:104B3000000C30C000000000000000010638C0007A
:104B400000020202FE000000004040407F00000022
:104B50000000040202020400000000000000000047
:104B60000000000000000000808080808080808045
:104B7000000202040000000000000000000000002D
:104B800000008080808000000019242222223F2023
:104B900008F8008080000000003F112020110E0066
:104BA0000000008080800000000E112020201100F5
:104BB000000000808088F800000E112020103F20A7
:104BC0000000808080800000001F2222222213002B
:104BD000008080F0888888180020203F2020000076
:104BE0000000808080808000006B9494949360002B
:104BF00008F8008080800000203F210000203F2036
:104C000000809898000000000020203F2020000035
:104C1000000000809898000000C08080807F000025
:104C200008F8000080808000203F24022D30200002
:104C3000000808F8000000000020203F20200000AD
:104C40008080808080808000203F20003F20003FC7
:104C50008080008080800000203F210000203F20D5
:104C60000000808080800000001F202020201F0086
:104C7000808000808000000080FFA12020110E00B5
:104C80000000008080808000000E112020A0FF80A6
:104C9000808080008080800020203F212000010053
:104CA00000008080808080000033242424241900A8
:104CB000008080E0808000000000001F20200000B5
:104CC0008080000000808000001F202020103F20F6
:104CD000808080000080808000010E300806010086
:104CE00080800080008080800F300C030C300F002B
:104CF00000808000808080000020312E0E31200056
:104D0000808080000080808080818E701806010085
:104D100000808080808080000021302C22213000A3
:104D200000000000807C020200000000003F4040C4
:104D30000002027C800000000040403F00000000B4
:104D400000000000FF00000000000000FF00000065
:104D50000102202020FF2020109011161010D010EA
:104D60000000000000000000000000000000000043
:104D70000000000000000000000000000000000033
:104D80000000000000000000000000000000000023
:104D90000000000000000000000000000000000013
:104DA0000000000000000000000000000000000003
:104DB00000000000000000000000000000000000F3
:104DC00000000000000000000000000000000000E3
:104DD00000000000000000000000000000000000D3
:104DE00000000000000000000000000000000000C3
:104DF00000000000000000000000000000000000B3
:104E000000000000000000000000000000000000A2
:104E10000000000000000000000000000000000092
:104E20000000000000000000000000000000000082
:104E30000000000000000000000000000000000072
:104E40000000000000000000000000000000000062
:104E5000001030100F084840415E40704E41404005
:104E60000000000000000000000000000000000042
:104E70000000000000000000000000000000000032
:104E80000000000000000000000000000000000022
:104E90000000000000000000000000000000000012
:104EA0000000000000000000000000000000000002
:104EB00000000000000000000000000000000000F2
:104EC00000000000000000000000000000000000E2
:104ED00000000000000000000000000000000000D2
:104EE00000000000000000000000000000000000C2
:104EF00000000000000000000000000000000000B2
:104F000000000000000000000000000000000000A1
:104F10000000000000000000000000000000000091
:104F20000000000000000000000000000000000081
:104F30000000000000000000000000000000000071
:104F40000000000000000000000000000000000061
:104F5000202020FF202202FE0202625A46C00000EA
:104F60000000000000000000000000000000000041
:104F70000000000000000000000000000000000031
:104F80000000000000000000000000000000000021
:104F90000000000000000000000000000000000011
:104FA0000000000000000000000000000000000001
:104FB00000000000000000000000000000000000F1
:104FC00000000000000000000000000000000000E1
:104FD00000000000000000000000000000000000D1
:104FE00000000000000000000000000000000000C1
:104FF00000000000000000000000000000000000B1
:1050000000000000000000000000000000000000A0
:105010000000000000000000000000000000000090
:105020000000000000000000000000000000000080
:105030000000000000000000000000000000000070
:105040000000000000000000000000000000000858
:1050500018080744348E81462810284681800000B5
:105060000000000000000000000000000000000040
:105070000000000000000000000000000000000030
:105080000000000000000000000000000000000020
:105090000000000000000000000000000000000010
:1050A0000000000000000000000000000000000000
:1050B00000000000000000000000000000000000F0
:1050C00000000000000000000000000000000000E0
:1050D00000000000000000000000000000000000D0
:1050E00000000000000000000000000000000000C0
:1050F00000000000000000000000000000000000B0
:10510000000000000000000000000000000000009F
:10511000000000000000000000000000000000008F
:10512000000000000000000000000000000000007F
:10513000000000000000000000000000000000006F
:1051400000000000000000000000000000001090BF
:10515000FF9010E2222A2AF22A2622E00000000014
:10516000000000000000000000000000000000003F
:10517000000000000000000000000000000000002F
:10518000000000000000000000000000000000001F
:10519000000000000000000000000000000000000F
:1051A00000000000000000000000000000000000FF
:1051B00000000000000000000000000000000000EF
:1051C00000000000000000000000000000000000DF
:1051D00000000000000000000000000000000000CF
:1051E00000000000000000000000000000000000BF
:1051F00000000000000000000000000000000000AF
:10520000000000000000000000000000000000009E
:10521000000000000000000000000000000000008E
:10522000000000000000000000000000000000007E
:10523000000000000000000000000000000000006E
:10524000000000000000000000000000000601FF58
:105250000001FF0909097F0949897F00000000005A
:10526000000000000000000000000000000000003E
:10527000000000000000000000000000000000002E
:10528000000000000000000000000000000000001E
:10529000000000000000000000000000000000000E
:1052A00000000000000000000000000000000000FE
:1052B00000000000000000000000000000000000EE
:1052C00000000000000000000000000000000000DE
:1052D00000000000000000000000000000000000CE
:1052E00000000000000000000000000000000000BE
:1052F00000000000000000000000000000000000AE
:10530000000000000000000000000000000000009D
:10531000000000000000000000000000000000008D
:10532000000000000000000000000000000000007D
:10533000000000000000000000000000000000006D
:10534000000000000000000000000000020304054F
:10535000060708090A0B0C0D0E0F1010E585B6E4C0
:10536000BB96E59E83E59CBE00E58EA8E4BD99E56D
:105370009E83E59CBE00E69C89E5AEB3E59E83E591
:105380009CBE00E58FAFE59B9EE694B6E59E83E567
:105390009CBE0000B8530008000000203000000050
:1053A000EC440008E853000830000020B805000075
:1053B000FC440008000000000000000001000000A4
:1053C00010000000AE001040B081FFA1A6A83FC8A9
:1053D000D300D580D805D9F1DA12D8308D14AF00BA
:0853E0000024F40000000000AD
:0400000508000131BD
:00000001FF
